:020000040800F2
:10000000D00700200D0400081102000813020008A8
:10001000170200081B0200081F0200080000000071
:1000200000000000000000000000000023020008A3
:10003000250200080000000027020008290200082D
:1000400027040008270400082704000827040008E4
:1000500027040008270400082704000827040008D4
:1000600027040008270400082704000827040008C4
:1000700027040008270400082704000827040008B4
:1000800027040008270400082704000827040008A4
:100090002704000827040008270400082704000894
:1000A0002704000827040008270400082704000884
:1000B0005D240008A72B0008752400082704000809
:1000C0002704000827040008270400082704000864
:1000D00027040008C9200008E521000827040008BB
:1000E0002704000827040008270400082704000844
:1000F0002704000827040008270400082704000834
:100100002704000827040008270400082704000823
:100110002704000827040008270400082704000813
:100120002704000827040008270400082704000803
:1001300000F002F800F03FF80AA090E8000C8244BA
:100140008344AAF10107DA4501D100F034F8AFF297
:10015000090EBAE80F0013F0010F18BFFB1A43F0A5
:1001600001031847F432000014330000103A24BF92
:1001700078C878C1FAD8520724BF30C830C144BF0C
:1001800004680C607047000000230024002500264E
:10019000103A28BF78C1FBD8520728BF30C148BFEA
:1001A0000B607047632902F0DE85002070471FB5A1
:1001B0001FBD10B510BD02F011FE1146FFF7F7FF8D
:1001C00000F008F802F02FFE03B4FFF7F2FF03BCC3
:1001D00001F01EFF092001F0D0FE01F037FE0021E2
:1001E00041F61F4002F04EF802F0ACF94FF4E13056
:1001F00001F01DFF4FF4E13001F0A3FF41F61F4174
:10020000632002F071F902E0C82001F05CFEFBE718
:10021000704700BFFEE700BFFEE700BFFEE700BF7C
:10022000FEE7704770477047704700000CB500202C
:10023000019000906C48006840F480306A49086082
:1002400000BF6948006800F4003000900198401C2D
:100250000190009818B90198B0F5A06FF1D16248EB
:10026000006800F4003010B10120009001E000208F
:1002700000900098012843D15C48006840F01000CD
:100280005A4908600846006820F0030008600846E4
:10029000006840F0020008605348406852494860D6
:1002A0000846406848600846406840F480604860FE
:1002B0000846406820F47C1048600846406840F4D6
:1002C000E81048600846006840F08070086000BF91
:1002D0004548006800F000700028F9D042484068A6
:1002E00020F00300404948600846406840F00200A2
:1002F000486000BF3C48406800F00C000828F9D175
:100300000CBD10B5FFF792FF10BD10B53648006860
:1003100040F001003449086008464068344908400C
:100320003149486008460068324908402E49086053
:100330000846006820F4802008600846406820F4E1
:10034000FE0048604FF41F008860FFF7DAFF4FF0AF
:1003500000602949086010BD10B50021002000226E
:10036000214B5B6803F00C0121B1042906D0082958
:1003700028D107E0214B224C236027E01F4B204C63
:10038000236023E0184B5B6803F47010164B5B6826
:1003900003F48032022303EB904022B9194B43430C
:1003A000174C23600DE0104B5B6803F4003323B15E
:1003B000144B4343124C236003E0104B4343104C57
:1003C000236003E00D4B0E4C236000BF00BF064BC3
:1003D0005B68C3F303130C4CE15C094B1B68CB4017
:1003E000074C236010BD00000010024000200240B6
:1003F0000000FFF8FFFFF6FE08ED00E000127A00B3
:100400001000002000093D0014000020094880472A
:1004100009480047FEE7FEE7FEE7FEE7FEE7FEE7E6
:10042000FEE7FEE7FEE7FEE704480549054A064BFE
:10043000704700000B03000831010008D0010020C4
:10044000D0070020D0030020D00300203149014311
:10045000314A1160704770B5002100230F22C47823
:1004600004B32D4C246804F4E064C4F5E064210A6C
:10047000C1F10403CA40447804FA03F184781440BB
:1004800021430901254C0678A155047804F01F0585
:100490000124AC4005786D11AD0005F1E025C5F8EB
:1004A000004109E0047804F01F050124AC401C4D14
:1004B0000678761145F8264070BD1A4A0A40024374
:1004C000154B1B1F1A60704739B1134A121D126871
:1004D0000243114B1B1D1A6006E00F4A121D1268E1
:1004E00082430D4B1B1D1A607047042808D14FF042
:1004F000E021096941F004014FF0E022116107E0B9
:100500004FF0E021096921F004014FF0E022116170
:10051000704700000000FA050CED00E000E400E088
:1005200080E100E080FFFF1F10B50446CC48844204
:1005300008D10121042000F02DFB0021042000F04F
:1005400029FB46E0C748844208D10121082000F079
:1005500021FB0021082000F01DFB3AE0C248844244
:1005600008D10121102000F015FB0021102000F01F
:1005700011FB2EE0BD48844208D10121202000F06B
:1005800009FB0021202000F005FB22E0B84884424E
:1005900008D10121402000F0FDFA0021402000F0A8
:1005A000F9FA16E0B348844208D10121802000F016
:1005B000F1FA0021802000F0EDFA0AE0AE48844212
:1005C00007D10121801500F0E5FA0021A01500F007
:1005D000E1FA10BD10B50121084600F0DBFA002158
:1005E000012000F0D7FA10BD2DE9F04102460025A8
:1005F0000026002000230024002791F803C00CF0FF
:100600000F0591F803C00CF0100CBCF1000F03D0E3
:1006100091F802C04CEA050591F800C0BCF1000F4A
:1006200031D0146800202BE04FF0010C0CFA00F3DD
:10063000B1F800C00CEA03069E4220D183004FF0BF
:100640000F0C0CFA03F7BC4305FA03FC4CEA040454
:1006500091F803C0BCF1280F06D14FF0010C0CFA41
:1006600000FCC2F814C00AE091F803C0BCF1480FC6
:1006700005D14FF0010C0CFA00FCC2F810C0401C70
:100680000828D1D31460B1F800C0BCF1FF0F34DDED
:10069000546800202EE000F1080C4FF0010808FA21
:1006A0000CF3B1F800C00CEA03069E4221D183008E
:1006B0004FF00F0C0CFA03F7BC4305FA03FC4CEAAD
:1006C000040491F803C0BCF1280F05D100F1080C17
:1006D00008FA0CF8C2F8148091F803C0BCF1480F76
:1006E00007D100F1080C4FF0010808FA0CF8C2F825
:1006F0001080401C0828CED35460BDE8F0814FF62E
:10070000FF710180022181700421C170704702468F
:10071000002093680B400BB1012000E000207047DF
:100720000146886880B2704702460020D3680B40BB
:100730000BB1012000E0002070470146C86880B27C
:10074000704701617047416170470AB1016100E083
:1007500041617047C16070474FF480320A43826143
:100760008161826182698269704702460020434B41
:1007700018684FF68073184040EA021008433F4B58
:10078000186070473E49C8617047F0B50A460023BB
:1007900000240021002500F00046B6F1004F02D1F0
:1007A000364EF16901E0354E7168C0F3034583B2FE
:1007B00000F44016B6F5401F08D121F070612F4EAD
:1007C000766826F070662D4F7E6012E000F4801689
:1007D000B6F5801F06D1032606FA05F4A14341F0C1
:1007E000706106E0460D360103FA06F6B14341F0AA
:1007F000706122B1460D360103FA06F6314300F06E
:100800000046B6F1004F02D11C4EF16101E01B4ED3
:100810007160F0BD30B500228B071C0F0F2303FA67
:1008200004F2164B08338C1053F824309343134CC6
:1008300008348D1044F8253023468C1053F82430AA
:100840008C07240F00FA04F423430C4C08348D1059
:1008500044F8253030BD0A49DC310860704700009B
:1008600000080140000C014000100140001401404C
:1008700000180140001C0140002001400000014020
:1008800000002042DF48006840F00100DD490860B8
:1008900008464068DC490840DA4948600846006874
:1008A000DA490840D74908600846006820F48020EB
:1008B00008600846406820F4FE0048604FF41F00BE
:1008C00088607047CF49096821F48031CD4A1160B2
:1008D0001146096821F480211160B0F5803F03D0F2
:1008E000B0F5802F0ED106E0C649096841F4803189
:1008F000C44A116007E0C349096841F4A021C14A14
:10090000116000E000BF00BF704710B50146002233
:10091000002300204A11012A02D1BA4C236806E0C4
:10092000022A02D1B74C236A01E0B64C636A01F097
:100930001F02012494401C400CB1012000E0002063
:1009400010BD38B5002000900024002500BF3120E4
:10095000FFF7DBFF05460098401C00900098B0F5BB
:10096000A06F01D0002DF2D03120FFF7CEFF08B1EB
:10097000012400E00024204638BD01460020A14AA1
:10098000106820F0F80040EAC10010607047A049EC
:1009900008607047024600209A4B586820F47C108B
:1009A00042EA01031843974B58607047984908661C
:1009B000704701460020934A506820F00300084326
:1009C000506070478F48406800F00C007047014647
:1009D00000208C4A506820F0F000084350607047B7
:1009E00001460020874A506820F4E06008435060C8
:1009F000704701460020834A506820F4605040EA66
:100A0000C1005060704729B17E4A527A02437D4B43
:100A10005A7204E07B4A527A82437A4B5A72704788
:100A20007B49D8310860704701460020754A5068FC
:100A300020F440400843506070470021714A203242
:100A40001170704A82F82010012802D004280AD1BF
:100A500004E001216B4A2032117005E00521694A4A
:100A60002032117000E000BF00BF70476949086084
:100A700070476449096A0143624A116270476549D7
:100A800044390860704730B500210022002400235B
:100A90005C4D6D6805F00C0121B1042905D00829D1
:100AA00023D105E05C4D056022E05B4D05601FE051
:100AB000544D6D6805F47012524D6D6805F4803424
:100AC000022505EB92421CB9544D554305600BE0DD
:100AD0004C4D6D6805F400351DB1504D5543056012
:100AE00002E04D4D5543056002E04B4D056000BFEF
:100AF00000BF444D6D6805F0F0010909484D6B5C7D
:100B00000568DD4045603F4D6D6805F4E061090A08
:100B1000434D6B5C4568DD4085603A4D6D6805F47A
:100B20006051C90A3E4D6B5C4568DD40C560354D7E
:100B30006D6805F44041890B3A4D6B5CC568B5FBA7
:100B4000F3F5056130BD29B12E4A526902432D4BA0
:100B50005A6104E02B4A526982432A4B5A6170471A
:100B600029B1284A92690243264B9A6104E0254A3A
:100B700092698243234B9A61704729B1214AD26915
:100B80000243204BDA6104E01E4AD26982431D4BC6
:100B9000DA61704729B11B4AD2680243194BDA6007
:100BA00004E0184AD2688243164BDA60704729B1D4
:100BB000144A12690243134B1A6104E0114A126984
:100BC0008243104B1A6170471249403908607047E0
:100BD0000F49C86470470B49C87170470948406A9B
:100BE00040F0807007494862704701460020054A7E
:100BF00092680A400AB1012000E0002070470149D4
:100C000088727047001002400000FFF8FFFFF6FEF8
:100C1000000042428004424200127A0000093D0076
:100C2000240000203400002010B50446FE48844211
:100C300008D10121C014FFF7ADFF0021E014FFF738
:100C4000A9FFC4E0B4F1804F08D101210846FFF7A5
:100C5000AEFF00210120FFF7AAFFB8E0F34884426D
:100C600008D101210220FFF7A2FF00210220FFF797
:100C70009EFFACE0EE48844208D101210420FFF73A
:100C800096FF00210420FFF792FFA0E0E94884428C
:100C900008D101210820FFF78AFF00210820FFF773
:100CA00086FF94E0E448844208D101211020FFF738
:100CB0007EFF00211020FFF77AFF88E0DF488442A2
:100CC00008D101212020FFF772FF00212020FFF72B
:100CD0006EFF7CE0DA48844208D101214014FFF71E
:100CE00059FF00216014FFF755FF70E0D54884429A
:100CF00009D10121C804FFF74DFF00214FF4002066
:100D0000FFF748FF63E0D048844209D1012108057C
:100D1000FFF740FF00214FF48010FFF73BFF56E044
:100D2000CA48844209D101214805FFF733FF002159
:100D30004FF40010FFF72EFF49E0C548844208D168
:100D400001214020FFF733FF00214020FFF72FFF54
:100D50003DE0C048844208D101218020FFF727FFF1
:100D600000218020FFF723FF31E0BB48844208D1F7
:100D700001218015FFF71BFF0021A015FFF717FFCA
:100D800025E0B648844209D101210804FFF702FF9B
:100D900000214FF48030FFF7FDFE18E0B048844298
:100DA00009D101214804FFF7F5FE00214FF400307E
:100DB000FFF7F0FE0BE0AB48844208D10121880424
:100DC000FFF7E8FE00214FF48020FFF7E3FE10BD9F
:100DD00000220288944B98420ED0994B98420BD037
:100DE000B0F1804F08D0914B984205D0904B98427B
:100DF00002D0904B984204D14FF68F731A404B8823
:100E00001A438D4B984207D08C4B984204D04FF632
:100E1000FF431A40CB881A4302808B8883850B8856
:100E20000385814B98420BD0854B984208D08B4B61
:100E3000984205D08A4B984202D08A4B984201D101
:100E40000B7A038601238382704770B50024002249
:100E50000023058C4FF6FE7635400584028C83888E
:100E6000048B4FF68F752C40B51E2C400D882C43FB
:100E7000751E2A400D892A434D882A436A4DA8428F
:100E80000BD06F4DA84208D0744DA84205D0744DC8
:100E9000A84202D0734DA84213D14FF6F7752A40ED
:100EA0004D892A434FF6FB752A408D882A434FF619
:100EB000FF652B404FF6FF552B408D892B43CD8985
:100EC0002B4383800483CD888586028470BD70B5F2
:100ED000002400220023058C4FF6EF763540058470
:100EE000028C8388048B48F6FF752C404FF6FF4533
:100EF0002C400D884FF6FF7606EA05252C434FF669
:100F0000DF752A400D8906EA05152A434D8806EA51
:100F100005152A43444DA84202D0494DA8421DD18F
:100F20004FF67F752A404D894FF6FF7606EA051584
:100F30002A434FF6BF752A408D8806EA05152A43D5
:100F40004FF6FF352B404FF2FF752B408D8906EA97
:100F500085052B43CD8906EA85052B4383800483D1
:100F6000CD880587028470BD70B50024002200235F
:100F7000058C4FF6FF6635400584028C8388848B90
:100F80004FF68F752C404FF6FC752C400D882C4386
:100F90004FF6FF552A400D894FF6FF7606EA0525E4
:100FA0002A434D8806EA05252A431F4DA84202D050
:100FB000234DA8421DD14FF2FF752A404D894FF6AF
:100FC000FF7606EA05252A434FF6FF352A408D882D
:100FD00006EA05252A434EF6FF752B404DF6FF75B0
:100FE0002B408D8906EA05152B43CD8906EA0515A8
:100FF0002B4383808483CD888587028470BD70B540
:10100000002200230024058C4EF6FF76354005842F
:10101000038C8488828B48F6FF752A404FF6FF4583
:101020002A400D8820E00000002C01400004004010
:1010300000080040000C0040001000400014004078
:1010400000340140004C0140005001400054014078
:1010500000180040001C00400020004000400140FB
:1010600000440140004801404FF6FF7606EA05259E
:101070002A434DF6FF752B400D8906EA05352B43B3
:101080004D8806EA05352B43FA4DA84202D0FA4DA9
:10109000A84208D14BF6FF752C408D894FF6FF769C
:1010A00006EA85152C4384808283CD88A0F84050C1
:1010B000038470BD828B4FF2FF331A408283828B90
:1010C0004FF6FF7303EA01231A4382837047F0B59A
:1010D0000C461546002200210026078C4EF6FF7CA8
:1010E00007EA0C070784828B018C4FF6FF7707EA2B
:1010F000043640F6FF473A404FF6FF7707EA0527E8
:101100003A434FF6FF7707EA03373A43D94FB842DD
:101110000ED0D94FB8420BD0B0F1804F08D0D74F86
:10112000B84205D0D64FB84202D0D64FB84206D109
:101130004DF6FF77394046F48057394305E047F6CE
:10114000FF57394044F48057394382830184F0BD0E
:10115000828B4FF6F3731A408283828B0A43828319
:101160007047F0B50C461546002200210026078C7A
:101170004FF6FF6C07EA0C070784828B018C4FF651
:10118000FF7707EA04264FF60C773A404FF6FF77D1
:1011900007EA03172F433A43B64FB8420ED0B64F73
:1011A000B8420BD0B0F1804F08D0B44FB84205D050
:1011B000B34FB84202D0B34FB84206D14FF6FF57F3
:1011C000394046F48077394305E04FF2FF57394004
:1011D00044F48077394382830184F0BD028B4FF25F
:1011E000FF331A400283028B4FF6FF7303EA012399
:1011F0001A4302837047F0B50C46154600220021C1
:101200000026078C4FF6EF7C07EA0C070784028B59
:10121000018C4FF6FF7707EA041640F6FF473A4085
:101220004FF6FF7707EA03373A434FF6FF7707EAAF
:1012300005273A438F4FB8420ED08F4FB8420BD09C
:10124000B0F1804F08D08D4FB84205D08C4FB842D6
:1012500002D08C4FB84206D14FF6DF77394046F0C6
:101260001007394305E04FF65F77394044F0100727
:10127000394302830184F0BD028B4FF6F3731A40A9
:101280000283028B0A4302837047F0B50C46154671
:1012900000220021068C4FF6FE773E400684028B2A
:1012A000018C4FF60C7632407E1C06EA03162E4364
:1012B0003243704EB0420ED06F4EB0420BD0B0F100
:1012C000804F08D06D4EB04205D06D4EB04202D076
:1012D0006C4EB04206D14FF6FD76314044F0010627
:1012E000314305E04FF6F576314044F001063143D5
:1012F00002830184F0BD70B505460C465D48854209
:101300000ED05D4885420BD0B5F1804F08D05B48C8
:10131000854205D05A48854202D05A48854200D1BC
:1013200000E000BF208850B92389A2886188284640
:10133000FFF7ABFFE1882846FFF79EFF25E02088F6
:1013400004280AD12389A28861882846FFF753FF21
:10135000E1882846FFF742FF17E0208808280AD1D5
:101360002389A28861882846FFF7FBFEE18828468A
:10137000FFF7EEFE09E02389A28861882846FFF77F
:10138000A6FEE1882846FFF795FE70BD2DE9F041E5
:1013900005460C4600260127608808B9022600E0B1
:1013A0000026A088012801D1022700E0012720881B
:1013B000A0B92389A28861882846FFF766FFE188E3
:1013C0002846FFF759FF23893A4631462846FFF75A
:1013D00012FFE1882846FFF701FF13E02389A28866
:1013E00061882846FFF707FFE1882846FFF7F6FEE9
:1013F00023893A4631462846FFF747FFE1882846C9
:10140000FFF73AFFBDE8F0810A884B881A438B88C2
:101410001A43CB881A430B891A434B891A438B8989
:101420001A43A0F8442070474FF6FF7181800021D5
:101430000180C1804180017270470021018041809C
:101440008180C180018141818181C18170470021FA
:1014500001804180012181800021C180018170478C
:101460000021018041808180C18001814181818191
:1014700070470000002C014000340140000400408F
:1014800000080040000C004021B1028842F0010237
:10149000028004E002884FF6FE731A400280704713
:1014A00031B1B0F8442042F40042A0F8442005E0F5
:1014B000B0F84420C2F30E02A0F8442070471AB1DD
:1014C00083890B43838102E083898B438381704747
:1014D0008182704741EA0203A0F8483070471AB190
:1014E00083890B43838102E083898B438381704727
:1014F00001894FF6F8721140018170470A460021B8
:1015000001894FF68F73194011430181704730B53F
:1015100004460D4629462046FFF7F0FF208940F09B
:101520000700208130BD2DE9F04104460D461646E6
:101530001F46602D06D13B46012231462046FFF76B
:101540005AFE05E03B46012231462046FFF79DFE4C
:1015500029462046FFF7D2FF208940F0070020816E
:10156000BDE8F08130B50C4600210189C9B24FF6C3
:10157000FF7505EA0325154325432943018130BD45
:101580002DE9F04105460E4617469846002443468D
:101590003A4631462846FFF7E5FF2C894FF6F870AA
:1015A000044044F007044FF68F70044044F0700488
:1015B0002C81BDE8F081F0B504460D4616461F4665
:1015C0003B46324629462046FFF7CCFF208940F4AF
:1015D00080402081F0BD0185828270470A4600214B
:1015E00001884FF68F731940114301807047F0B5A1
:1015F0000C4615461E460021002200230189028B5D
:10160000038C4FF6F877394021434FF6FC473A40B8
:1016100040F201173A434FF6DD773B404FF6FF7734
:1016200007EA06172F433B43018102830384F0BD81
:101630000A460021018B4FF68F7319401143018335
:1016400070470A460021018B48F6FF7319404FF698
:10165000FF7303EA02231943018370470A460021FE
:10166000818B4FF68F7319401143818370470A466F
:101670000021818B48F6FF7319404FF6FF7303EA90
:10168000022319438183704721B1028842F080020E
:10169000028004E002884FF67F731A400280704790
:1016A00021B1828842F00402828004E082884FF6F1
:1016B000FB731A408280704721B1828842F0080291
:1016C000828004E082884FF6F7731A408280704768
:1016D00021B1828842F00102828004E082884FF6C4
:1016E000FE731A40828070470A460021018B4FF634
:1016F000F77319401143018370470A460021018B9B
:101700004FF2FF7319404FF6FF7303EA02231943A8
:10171000018370470A460021818B4FF6F773194009
:101720001143818370470A460021818B4FF2FF737A
:1017300019404FF6FF7303EA022319438183704770
:101740000A460021018B4FF6FB73194011430183B8
:1017500070470A460021018B4FF6FF3319404FF6C0
:10176000FF7303EA02231943018370470A460021ED
:10177000818B4FF6FB7319401143818370470A46F2
:101780000021818B4FF6FF3319404FF6FF7303EAB8
:1017900002231943818370470A460021018B4FF6CB
:1017A0007F7319401143018370470A460021018B62
:1017B000C1F30E014FF6FF7303EA022319430183BD
:1017C00070470A460021818B4FF67F731940114301
:1017D000818370470A460021818BC1F30E014FF6C9
:1017E000FF7303EA02231943818370470A460021ED
:1017F000018C4FF6FD7319401143018470470A466E
:101800000021018C4FF6F773194011430184704792
:101810000A460021018C4FF6DF7319404FF6FF7323
:1018200003EA02131943018470470A460021018C20
:101830004FF67F7319404FF6FF7303EA0213194303
:10184000018470470A460021018C4FF6FF5319406E
:101850004FF6FF7303EA02231943018470470A46D7
:101860000021018C4FF2FF7319404FF6FF7303EA1A
:1018700002231943018470470A460021018C4DF66A
:10188000FF7319404FF6FF7303EA023319430184D3
:10189000704730B5002301248C40A3B2048C9C43D4
:1018A0000484048C02FA01F5ADB22C43048430BDEB
:1018B00030B5002304248C40A3B2048C9C430484E0
:1018C000048C02FA01F5ADB22C43048430BD70B52E
:1018D0000346002000241846183001258D40ACB284
:1018E0001D8CA5431D8409B1082909D100EB6100B5
:1018F000056825F0700505600568154305600EE074
:101900000D1FC5F34E052844056825F4E045056024
:1019100005684FF6FF7606EA02263543056070BD7E
:1019200021B1028842F00202028004E002884FF6F0
:10193000FD731A400280704721B1028842F0040210
:10194000028004E002884FF6FB731A400280704761
:1019500021B1828842F08002828004E082884FF6C2
:101960007F731A408280704702884FF6F7731A40DF
:10197000028002880A430280704782884FF68F7384
:101980001A40828082880A438280704702894FF61B
:10199000F8731A40028102890A4302817047028962
:1019A0004FF67F731A40028102890A430281704711
:1019B00081847047818570478186704701877047B1
:1019C00081877047A0F84010704702884FF6FF43A8
:1019D0001A40028002880A43028070470146888EBE
:1019E00070470146088F70470146888F704701464F
:1019F000B1F8400070470146888C70470146088D59
:101A0000704702460020138A0B400BB1012000E012
:101A100000207047CA430282704730B5024600205A
:101A200000230024158A05EA0103958905EA0104CB
:101A300013B10CB1012000E0002030BDCA43028286
:101A40007047000010B50446FB48844209D10121CB
:101A50008803FFF79FF800214FF48040FFF79AF8C2
:101A600032E0F648844209D101214804FFF79FF88B
:101A700000214FF40030FFF79AF825E0F048844247
:101A800009D101218804FFF792F800214FF480204A
:101A9000FFF78DF818E0EB48844209D10121C80412
:101AA000FFF785F800214FF40020FFF780F80BE0E6
:101AB000E548844208D101210805FFF778F80021A4
:101AC0004FF48010FFF773F810BD2DE9F04786B092
:101AD00005460E460024A24600BFA1460027B08955
:101AE00000B100BF2F462C8A4CF6FF700440F088EE
:101AF00004432C82AC894EF6F3100440B08831893F
:101B00000843718908430443AC81AC8A4FF6FF4017
:101B10000440B0890443AC8201A8FEF7B4FFC64874
:101B2000874202D1DDF810A001E0DDF80CA0A88901
:101B300000F4004040B10AEBCA0000EB0A10316823
:101B40004900B0FBF1F807E00AEBCA0000EB0A100D
:101B500031688900B0FBF1F86420B8FBF0F00401B3
:101B60002009642101FB1089A88900F4004040B1DC
:101B7000322000EBC900B0FBF1F000F00700044395
:101B800008E0322000EB09106421B0FBF1F000F016
:101B90000F0004432C8106B0BDE8F0874FF41651C6
:101BA000016000218180C18001810C2141810021DF
:101BB0008181704710B502460020108A4FF2FF0362
:101BC00018400B884C8823438C882343CC882343BC
:101BD0001843108210BD0021018041808180C180A6
:101BE000704721B1828942F40052828104E08289E7
:101BF0004DF6FF731A4082817047F0B5034600240A
:101C000000260025002040F66A17B94200D100BF27
:101C10001846C1F3421401F01F06012707FA06F522
:101C2000012C01D10C3004E0022C01D1103000E075
:101C300014301AB107682F43076002E00768AF430A
:101C40000760F0BD1AB1838A0B43838202E0838A66
:101C50008B4383827047028A4FF6F0731A400282E8
:101C6000028A0A430282704782894FF2FF731A4048
:101C7000828182890A438281704721B1828942F040
:101C80000202828104E082894FF6FD731A4082814C
:101C90007047028A4FF6DF731A400282028A0A43B3
:101CA0000282704721B1028A42F48042028204E03B
:101CB000028A4BF6FF731A4002827047C1F3080292
:101CC0008280704701468888C0F308007047818988
:101CD00041F0010181817047028BD2B20283028BF5
:101CE00042EA012202837047028B02F47F420283A0
:101CF000028B0A430283704721B1828A42F020029C
:101D0000828204E0828A4FF6DF731A408282704733
:101D100021B1828A42F01002828204E0828A4FF668
:101D2000EF731A408282704721B1828A42F0080222
:101D3000828204E0828A4FF6F7731A4082827047EB
:101D400021B1828942F40042828103E08289C2F398
:101D50000E028281704721B1828A42F4006282823F
:101D600004E0828A4FF2FF731A4082827047828AAF
:101D70004FF6FB731A408282828A0A43828270473E
:101D800021B1828A42F00202828204E0828A4FF606
:101D9000FD731A408282704702460020B1F5007F31
:101DA00000D100BF13880B400BB1012000E00020E0
:101DB000704701F40072B2F5007F00D100BFCA4342
:101DC0000280704770B502460024002300250020E1
:101DD00040F66A16B14200D100BFC1F3421501F0CE
:101DE0001F03012606FA03F3012D02D19689334021
:101DF00006E0022D02D1168A334001E0968A334074
:101E00000C12012606FA04F41688344013B10CB102
:101E1000012000E0002070BD10B50022002340F634
:101E20006A14A14200D100BF0A1201249440A3B257
:101E3000DC43048010BD0000003801400044004035
:101E400000480040004C00400050004010B56FF0CA
:101E50000400FEF74AFB2E4800682E49B0FBF1F063
:101E60002D4908700846007800EB4001C1EBC01016
:101E70004FF6FF7101EAC0002849088010BD0146F5
:101E8000254A12784A434FF0E0235A6100229A61B2
:101E90001A46126942F001021A6100BF4FF0E022B7
:101EA000106900F001021AB100F48032002AF5D066
:101EB0004FF0E022126922F001024FF0E0231A6194
:101EC00000229A6170470146144A12884A434FF033
:101ED000E0235A6100229A611A46126942F0010217
:101EE0001A6100BF4FF0E022106900F001021AB140
:101EF00000F48032002AF5D04FF0E022126922F07F
:101F000001024FF0E0231A6100229A61704700003D
:101F10001000002000127A00380000203A00002053
:101F200030BF704772B6704762B6704700203449C0
:101F30000861C8601420486100208861C8610846B3
:101F4000006840F001000860084640682D490840DC
:101F50002B494860084600682B490840284908601A
:101F60000846006820F4802008600846406820F495
:101F7000FE00486000208860704700B502460023DC
:101F8000FFF7D4FF1E48006840F480301C49086009
:101F900000BF1B480068400C0028FAD04FF4806056
:101FA00017494860901EC2B20846406840EA824025
:101FB00048600846406840F4803048601348006834
:101FC00040F03200114908600D48006840F0807010
:101FD0000B49086000BF0A480068400E0028FAD08C
:101FE0000748406840F002000549486005E00448A1
:101FF0004068C0F3870303F00303022BF7D100BD51
:10200000001002400000FFF8FFFFF6FE0020024033
:10201000014600BF704700BF934A128802F0400299
:10202000002AF9D0C2B2904B1B1D1A80704710B520
:1020300086B00446012144F20400FEF791FD4FF4FE
:102040000070ADF8140003208DF8160018208DF8EC
:10205000170005A98548FEF7C7FA4FF48060ADF870
:10206000140004208DF8170005A98048FEF7BCFA7B
:1020700025208DF8000003208DF8010002208DF846
:10208000020001208DF803006846FEF7E4F9019490
:102090000020ADF80800ADF80A00ADF80C00ADF86E
:1020A00010000C20ADF80E0001A96F48FFF70DFDE0
:1020B000012240F225516C48FFF79FFD01216A483B
:1020C000FFF78FFD06B010BD10B540F225516648F0
:1020D000FFF778FE10B36448FFF7F4FDC4B264481C
:1020E000008800F40040C8B96148008800F48040CE
:1020F00060B10A2C03D000205D49088020E05C48D4
:10210000008840F400405A49088019E00D2C06D19F
:102110005748008840F480405549088010E05448F2
:102120000088C0F30D0053490C5451480088401CEE
:102130004F49088008460088C72801DD0020088034
:1021400010BD10B586B0044601210420FEF708FD3D
:1021500001214804FEF711FD0820ADF81400042009
:102160008DF8170005A94148FEF73EFA0420ADF8A6
:10217000140003208DF8160018208DF8170005A90B
:102180003A48FEF731FA01940020ADF80800ADF8A6
:102190000A00ADF80C00ADF810000C20ADF80E00F0
:1021A00001A93548FFF791FC012240F22551324840
:1021B000FFF723FD01213048FFF713FD4FF4E060E6
:1021C000FEF744F926208DF8000003208DF8010069
:1021D0008DF8020001208DF803006846FEF73BF9F8
:1021E00006B010BD10B5002401212348FFF7D4FD2F
:1021F00030B12148FFF766FD01211F48FFF7D9FDE7
:1022000008211D48FFF7C8FD30B11B48FFF75AFDF4
:1022100008211948FFF7CDFD02211748FFF7BCFD43
:1022200030B11548FFF74EFD02211348FFF7C1FDFD
:1022300040F225511048FFF7C5FD98B120210E4806
:10224000FFF7B7FD40F225510B48FFF7E5FD0A48BF
:10225000FFF738FDC4B2214608A000F00DFD20466E
:1022600000F0A2F910BD0000003801400008014054
:102270004000002090000020004400402563200D15
:102280000A00000030B589B005460C460121C8029D
:10229000FEF766FC01210420FEF762FC4FF410609B
:1022A000ADF8200018208DF8230003208DF82200BF
:1022B00008A91C48FEF798F9ADF81850ADF814407D
:1022C0000020ADF81A00ADF8160005A91648FEF773
:1022D0007FFD6020ADF804000120ADF8060000206D
:1022E000ADF80A00ADF80C0001A90F48FEF7ADFDEE
:1022F00001A90D48FEF783FE01210B48FFF7D0F836
:1023000008210948FFF7F0F908210748FFF70BFA01
:1023100001210548FFF7B8F901210348FFF7B4F898
:1023200009B030BD00080140002C014000B587B065
:1023300001210846FEF721FC01210420FEF710FCD4
:102340000320ADF8000004208DF8030069466248C0
:10235000FEF74AF904A8FFF767F80020ADF810006F
:102360004FF6FE70ADF814000020ADF816002020E6
:10237000ADF8120004A94006FEF72AFD00231A4614
:1023800003214FF08040FFF732F901A8FFF75FF813
:102390000A20ADF80C0001A94007FEF7ACFF0121AF
:1023A0008807FFF737FB012211469007FFF787F8F0
:1023B00000214FF08040FFF7FBFA01218807FFF76B
:1023C00063F807B000BD00B587B001210420FEF717
:1023D000D4FB01210820FEF7C3FBC020ADF80000AC
:1023E00004208DF8030069463C48FEF7FDF804A878
:1023F000FFF71AF80020ADF810004FF6FE70ADF8A8
:1024000014000020ADF816002020ADF8120004A939
:102410003348FEF7DDFC00231A4603213048FFF75E
:10242000E6F801A8FFF713F80A20ADF80C0001A99F
:102430002B48FEF760FF01212948FFF7EBFA012244
:1024400011462748FFF73BF800212548FFF7B0FA6F
:1024500001212348FFF718F807B000BD10B501218E
:102460008807FFF7CEFA012803D101218007FFF783
:10247000E5FA10BD10B501211948FFF7C2FA01288D
:1024800003D101211648FFF7D9FA10BD01460229F0
:1024900004D003290BD0042919D10FE04FF080425A
:1024A000928C10B200224FF080439A8411E00D4AC2
:1024B000128810B200220B4B1A800AE0084A24321C
:1024C000128810B20022064B24331A8001E000204B
:1024D00000BF00BF7047000000080140000C014031
:1024E00000080040240400407FB505460C46012149
:1024F0000220FEF742FBADF80850ADF80440002082
:10250000ADF80A00ADF8060001A90D48FEF760FC21
:10251000012211460A48FEF7D2FF1D208DF8000067
:1025200001208DF803008DF8010003208DF80200D2
:102530006846FDF790FF01210148FEF7A5FF7FBD2A
:102540000004004008B501210420FEF709FB4FF408
:102550008050ADF8000010208DF8030003208DF8A6
:10256000020069460C48FEF73FF84FF480510A48D4
:10257000FEF7E7F808BD09490968491C074A1160D8
:10258000814208D106490968C943064AC2F8B01118
:102590000021024A116070470008014044000020F9
:1025A000B0012142000021422849097829B9AA280E
:1025B00003D10121254A117047E0244909780129F6
:1025C00005D1552803D10221204A11703DE01F4951
:1025D0000978022905D11E49087003211B4A117090
:1025E00033E01A490978032905D1194948700421B3
:1025F000164A117029E015490978042905D11449B2
:1026000088700521114A11701FE0104909780529C9
:1026100018D1542816D10E4909780D4A5278114420
:10262000C9B20B4A9278914208D1094909785A39BE
:10263000084A116006494978074A11600021034A97
:10264000117002E00021014A117070475000002013
:1026500058010020480000204C0000202DE9F041E6
:10266000FE480068FE490860FC480168FD480068B3
:1026700000F0E6FBFB490860FB480168F74800688A
:1026800000F074FEF949086008460168F8480068DF
:1026900000F06EFD0546F3480168F648006800F05A
:1026A00067FD0646EE480168F348006800F060FDEB
:1026B0000746314600F0C4FB0446294600F0C0FB43
:1026C000EE490860EE49ED48006800F01DFE02D2B8
:1026D000EB48EA4908600021E848006800F014FD72
:1026E00002D20020E5490860DC480068DE49086045
:1026F000BDE8F0812DE9F041E248006800F0ECFC13
:10270000D7490860DF48006800F0E6FC0446D54879
:102710000168204600F094FBD2490860D94800685F
:1027200000F0DAFC0446D0480168204600F01EFEA6
:10273000CE49086008460168CD48006800F018FDE1
:102740000546C8480168CB48006800F011FD064600
:10275000C3480168C848006800F00AFD07463146D2
:1027600000F06EFB0446294600F06AFBC34908608E
:10277000C549C248006800F0C7FD02D2C248BF493F
:1027800008600021BD48006800F0BEFC02D20020B5
:10279000BA490860BB48006800F09EFCB249086076
:1027A000BDE8F081F0B501210122012601240125B7
:1027B00001230127B5480088642800DD00E0491E98
:1027C000B2484088642800DD00E0521EAF4880888F
:1027D000642800DD00E0761EAC48C088642800DD77
:1027E00000E0641EA9480089642800DD00E06D1E39
:1027F000A6484089642800DD00E05B1EA34880896C
:10280000642800DD00E07F1EA0480088B8B99F481A
:102810004088A0B99D48808888B99C48C08870B914
:102820009A48008958B99948408940B997488089A1
:1028300028B90020DFF858C2CCF800003AE19348EC
:102840000088C8B991484088B0B99048808801286C
:1028500012D18E48C08878B98C48008960B98B48FD
:10286000408948B98948808930B96FF00100DFF8A4
:1028700020C2CCF800001DE184480088C0B983481C
:102880004088A8B98148808890B98048C08878B9C4
:102890007E48008901280BD17C48408940B97B489B
:1028A000808928B90220DFF8E8C1CCF8000001E1F6
:1028B00076480088C8B975484088012815D1734802
:1028C000808890B97148C08878B97048008960B92B
:1028D0006E48408948B96D48808930B96FF0090069
:1028E000DFF8ACC1CCF80000E4E068480088C0B96B
:1028F00066484088A8B96548808890B96348C08810
:1029000078B96248008960B960484089012808D1D7
:102910005E48808928B90A20DFF874C1CCF800002D
:10292000C8E05A480088012818D158484088A8B9FA
:102930005648808890B95548C08878B9534800896E
:1029400060B95248408948B95048808930B96FF021
:102950001300DFF83CC1CCF80000ABE04B48008826
:10296000C0B94A484088A8B94848808890B94748C3
:10297000C08878B94548008960B94448408948B959
:1029800042488089012805D11420DFF804C1CCF821
:1029900000008FE03D480088C0B93C484088A8B995
:1029A0003A48808890B93948C08878B93748008952
:1029B00060B93648408948B93448808930B96FF0E9
:1029C0001300DFF8CCC0CCF8000073E02F4800887B
:1029D000B8B92E484088A0B92C48808888B92B48BF
:1029E000C08870B92948008958B92848408940B939
:1029F0002648808928B90020DFF894C0CCF8000070
:102A000058E022480088B8B920484088A0B91F483B
:102A1000808888B91D48C08870B91C48008958B999
:102A20001A48408940B91948808928B90020DFF840
:102A300060C0CCF800003DE01448008850BB13484B
:102A4000408838BB1148808820BB1048C08808BB2C
:102A50000E480089F0B90D4840891CE06000002054
:102A60006400002068000020740000206C0000203A
:102A70005C0000205800002054000020700000205E
:102A80000000A042480000200000C842620100206F
:102A90000C00002009E040B96A48808928B900206C
:102AA000DFF8A4C1CCF8000004E00020DFF898C1F2
:102AB000CCF8000064480068F0BD70B504460D46CF
:102AC0004FF4FA506843642190FBF1F086B2012C78
:102AD00002D0022C0AD104E031465C48FEF76CFFBC
:102AE00005E031465948FEF76DFF00E000BF00BF2A
:102AF00070BD70B504460D46002D04DDE9B201201D
:102B0000FFF7DBFF03E000210120FFF7D6FF002CD9
:102B100004DDE1B20220FFF7D0FF03E00021022034
:102B2000FFF7CBFF70BD2DE9F0474948006800F082
:102B3000D3FA814647480168484600F017FC8046B2
:102B4000454900F0EBF90746444900F011FB064601
:102B500000F0A6FA04463E48006800F0BDFA81463F
:102B60003C480168484600F06BF980463A4900F05D
:102B7000D5F90746394900F0FBFA064600F090FA0D
:102B80000546002C00DA0024642C00DD6424002DAE
:102B900000DA0025642D00DD642529462046FFF774
:102BA000A8FFBDE8F08710B501212D48FEF729FFE9
:102BB000012807D101212A48FEF740FFFFF79AFDBF
:102BC000FFF7B1FF002010BD0146002901DA48429D
:102BD00000E0084670472DE9FC5F04460D461F4E95
:102BE000204F601B204908600846006800F074FA16
:102BF0003946009000F0BCFA82461B4909681B4A1E
:102C00001268881A00F068FA3146009000F0B0FAB5
:102C10008346514600F014F981461548006800F0DB
:102C20005BFA4946019000F00BF9804600F038FA53
:102C30000F4908600C4800680C4908600C4800689F
:102C4000BDE8FC9F620100200C000020002C014028
:102C50007C000020700000200000C8420000A0415D
:102C6000000400400000F041840000208C0000209F
:102C700088000020704700000FB4044910B503AA73
:102C8000029800F07DF810BC5DF814FB3C000020B9
:102C90002DE9F0410E460446002020622046E168FE
:102CA000884730B3252805D0D4E901219047206A10
:102CB000401CF2E7E168204600278847050018D04D
:102CC000A5F14100192802D820354FF4006732469B
:102CD000294620462760FDF765FA40B1012804D057
:102CE000F61D26F007060836D8E7361DD6E7284633
:102CF000DAE7206ABDE8F08170B50C460546012A86
:102D000005D02878800600D5EA69002302E0012377
:102D100005E05B1C934202D2E05C0028F9D1A8696F
:102D2000E618C01AA861286A184428622846AFF33A
:102D3000008004E0D5E9012114F8010B9047B4426A
:102D4000F8D32846AFF3008070BD704770477047D6
:102D5000704710B5436913B1AFF3008001E0FFF78E
:102D6000CBFF012010BD127800F124010A7000226F
:102D70004A700122EDE711684FF0FF32E9E70000E9
:102D8000074B70B50D467B4400F011F80446284609
:102D900000F020F810B14FF0FF3070BD204670BD3C
:102DA0008DF2FFFF01694A1C02610878704700B587
:102DB0008FB0CDE901310021059105497944CDE974
:102DC000031011466846FFF763FF0FB000BD000017
:102DD000E5FFFFFF007B00F080007047754600F0C4
:102DE0002BF8AE4605006946534620F0070085469D
:102DF00018B020B5FDF718FBBDE820404FF00006E5
:102E00004FF000074FF000084FF0000B21F00701D2
:102E1000AC46ACE8C009ACE8C009ACE8C009ACE815
:102E2000C0098D46704710B50446AFF300802046B8
:102E3000BDE81040FDF7C8B9004870477001002098
:102E400090EA010F48BF81F0004100F19682421ADA
:102E50003CBF801A89184FEAD0524FF07F4C1CEAD1
:102E6000410FA2EBD15318BF9CEA026F00F03B80E8
:102E70004FF0004C4CEA00204CEA012121FA03FCFF
:102E800010EB0C0C1ED202F1FF325FEA1C2040EB6B
:102E9000C25038BF70471CF07F0F4FEA400C18BF7C
:102EA000BCF17F4F38BF7047C3F12003994008BF82
:102EB00020F00100BCF17F4F38BF7047A0F1C04047
:102EC00000F01DBA4FEA3C00000A40EBC25028BF98
:102ED0001CF0FF0F4FEA400CE6D018BFBCF17F4F4B
:102EE00038BF7047EAE79CEA026F05D010EA5C0F32
:102EF00008BF00F00040704710B500F0BAF900BFFD
:102F000064FBBE3E401058BFC0F14040491058BF5E
:102F1000C1F140418142EFF3008070474FF47F0CD4
:102F20001CEAD0121EBF1CEAD11392EA0C0F93EADE
:102F30000C0F00F0858090EA010F48BF42F48072C8
:102F400040F4000C41F400002CF07F4120F07F4061
:102F500000B58142A2EB03020FF2081CACEB504E0D
:102F6000C0F100009EF800E04FEA4E0E00FB0EFCA0
:102F700038BF49004FEA2C1C02F5FA020CFB0EF395
:102F80004FEACE1E4FEA112C4FEAC1210EEB635ED1
:102F900042EB22420EFB0CFC4FEA1C5300FB0311D8
:102FA0004FEA112C4FEA01310EFB0CFC4FEADC4CCE
:102FB00000FB0C11C14228BF09184CEB03335DF82C
:102FC00004EB10EB410143EBC250B2F57C0F38BF6C
:102FD000704729D512F0F00F1CBF00F1C04000F07F
:102FE00000407047008182838485868788898B8C26
:102FF0008D8E8F919293959697999A9C9D9FA0A262
:10300000A3A5A7A8AAACAEB0B2B3B5B7B9BCBEC0B1
:10301000C2C5C7C9CCCED1D4D7D9DCDFE2E6E9EC52
:10302000F0F3F7FAFE0000004FEA400C0CF1807C50
:10303000BCF17E4F28BF7047B0F1C04000F05FB9CF
:1030400090EA010F0CEAD11348BF42F48072624546
:1030500038BF634507D213F47F0F16D080EA010012
:1030600000F00040704710B500F003F9097EFC3E07
:1030700000F005B880EA010000F00040704780EAE7
:10308000010000F0004000F03AB912F47F0F04BFD5
:103090000248704780EA010000F031B90000C07FAB
:1030A00041000B0ED3F19E0208D950F400034FEA01
:1030B000032323FA02F048BF4042704710B500F0E6
:1030C000D8F800BF49922480002070476FF000427A
:1030D00082EA20007047000010F0004148BF4042E3
:1030E000B0FA80F310FA03F2C3F19D030BD051EA5A
:1030F000C35101EB1220530638BF704700F10100A5
:1031000008BF20F00100704750EA010C00F1138065
:103110001CF5000F58BFBCF5000F01D48842704762
:1031200007D710F5000F58BF11F5000F15D48842CE
:103130007047894270471CF5000F04D5BCF5000F9D
:10314000F7D5814270474FF0807C1CEB400F38BFB1
:103150001CEB410F01D28142704710B500F089F895
:10316000922449004FF000504FF08051FFF7CABE43
:103170004FF47F0C1CEAD0121EBF1CEAD11392EA56
:103180000C0F93EA0C0F00F0478090EA010F48BF44
:1031900042F480724FF0004C4CEA00204CEA0121CE
:1031A00002EB0302A0FB0113A2F50002002918BFE5
:1031B00043F001035B0028BF4FEA330342EB224296
:1031C0005FEA132C4CEBC2502EBFBCEB436FB2F541
:1031D0007C0F70474FEA036CBCF1004F08BF20F032
:1031E0000100B2F57C0F38BF70470BD582F0FF02AB
:1031F00012F5803FC8BF704700F1C040D8BF00F053
:103200000040704700F5000C5FEA4C0C48BF704767
:10321000B0F1C04000F073B890EA010F0CEAD1138E
:1032200048BF42F48072624538BF634504D280EAE9
:10323000010000F00040704710B500F01AF800BF20
:103240008900013E00F007B800F009B85FEA410CC0
:103250005FEA1C6C08D080EA010000F050B85FEA19
:10326000400C5FEA1C6CF6D14FF00040A0F58000E6
:1032700070470EF1020E2EF0030E5EF8044B24424E
:1032800004D44FEA4102B2F17F4F11D84FEA400314
:10329000B3F17F4F0CD80ED14FEAD07CB2F17F4F03
:1032A0000CEB4C0C0CF1020C08BF4CEBD17C04E095
:1032B0004FF0080C01E04FEAD17C0CEB4C0324FAF0
:1032C00003F404F00704B4F1040C06D20EEB840CF2
:1032D000BDE810404CF0010C6047DFE80CF0070837
:1032E00002024FF00040A0F5800010BD08464200E9
:1032F00018BFD2F1807288BF00F0004010BDFF21DE
:1033000041EAD050C005704751EA000C00F113802B
:103310001CF5000F58BFBCF5000F01D48142704767
:1033200007D711F5000F58BF10F5000F15D48142D3
:103330007047894270471CF5000F04D5BCF5000F9B
:10334000F7D5884270474FF0807C1CEB410F38BFA7
:103350001CEB400F01D28842704780EA010081EAED
:10336000000180EA0100FFF7F8BE000090EA010FBB
:1033700048BF81F000413FF56AAD421A04D882F09F
:103380000042A0EB020011444FEAD0524FF07F4CB4
:103390001CEA410FA2EBD15318BF9CEA026F4AD03E
:1033A0004FF0004C4CEA00204CEA012121FA03FCCA
:1033B000B0EB0C0C0FD412F0FE0F36D05FEA4C00CD
:1033C0001DD5001240EBC25038BF70471CF03F0FB4
:1033D00018BF70470BE0A2F101025FEA1C2040EB2E
:1033E000C25038BF70471CF07F0F18BF7047C3F141
:1033F0002003994014BF401E20F001007047800850
:103400004FEA122308BF7047B0FA80FCA2EB0C020F
:10341000CCF1280C60FA0CF093EA122F04BF00EBF9
:10342000C25070474FEAC3707047130A5FEADC105E
:1034300008BF7047F6E79CEA026F04D010EA5C0F01
:1034400008BF0020704710B5FFF713FF40DFF63EBE
:1034500081F0004070470000783400080000002030
:10346000900000006C010008083500089000002062
:103470004007000088010008010000000000000073
:10348000000000000000000000A24A04000000004C
:103490000000000001020304060708090000000004
:1034A00001020304010203040607080902040608D6
:1034B000000000000000000000000000000000000C
:1034C000000000000000000000000000000020419B
:1034D000CDCCCC3E00000000000000000000000049
:1034E00000000000000000000000000000000000DC
:1034F000000000005000000032000000000000004A
:083500000000000000000000C3
:0400000508000131BD
:00000001FF
